{
  "contractName": "Election",
  "abi": [
    {
      "inputs": [],
      "stateMutability": "nonpayable",
      "type": "constructor"
    },
    {
      "anonymous": false,
      "inputs": [
        {
          "indexed": true,
          "internalType": "uint256",
          "name": "_candidateId",
          "type": "uint256"
        }
      ],
      "name": "Voted",
      "type": "event"
    },
    {
      "inputs": [],
      "name": "candidatesCount",
      "outputs": [
        {
          "internalType": "uint256",
          "name": "",
          "type": "uint256"
        }
      ],
      "stateMutability": "view",
      "type": "function",
      "constant": true
    },
    {
      "inputs": [],
      "name": "electionState",
      "outputs": [
        {
          "internalType": "enum Election.State",
          "name": "",
          "type": "uint8"
        }
      ],
      "stateMutability": "view",
      "type": "function",
      "constant": true
    },
    {
      "inputs": [],
      "name": "owner",
      "outputs": [
        {
          "internalType": "address",
          "name": "",
          "type": "address"
        }
      ],
      "stateMutability": "view",
      "type": "function",
      "constant": true
    },
    {
      "inputs": [],
      "name": "votersCount",
      "outputs": [
        {
          "internalType": "uint256",
          "name": "",
          "type": "uint256"
        }
      ],
      "stateMutability": "view",
      "type": "function",
      "constant": true
    },
    {
      "inputs": [],
      "name": "startElection",
      "outputs": [],
      "stateMutability": "nonpayable",
      "type": "function"
    },
    {
      "inputs": [],
      "name": "endElection",
      "outputs": [],
      "stateMutability": "nonpayable",
      "type": "function"
    },
    {
      "inputs": [
        {
          "internalType": "address",
          "name": "_address",
          "type": "address"
        },
        {
          "internalType": "uint256",
          "name": "_candidateId",
          "type": "uint256"
        }
      ],
      "name": "addCandidate",
      "outputs": [],
      "stateMutability": "nonpayable",
      "type": "function"
    },
    {
      "inputs": [
        {
          "internalType": "address",
          "name": "_voter",
          "type": "address"
        },
        {
          "internalType": "uint256",
          "name": "_voterId",
          "type": "uint256"
        }
      ],
      "name": "addVoter",
      "outputs": [],
      "stateMutability": "nonpayable",
      "type": "function"
    },
    {
      "inputs": [
        {
          "internalType": "address",
          "name": "_current",
          "type": "address"
        }
      ],
      "name": "getRole",
      "outputs": [
        {
          "internalType": "uint256",
          "name": "",
          "type": "uint256"
        }
      ],
      "stateMutability": "view",
      "type": "function",
      "constant": true
    },
    {
      "inputs": [
        {
          "internalType": "uint256",
          "name": "_candidateId",
          "type": "uint256"
        }
      ],
      "name": "vote",
      "outputs": [],
      "stateMutability": "nonpayable",
      "type": "function"
    },
    {
      "inputs": [
        {
          "internalType": "uint256",
          "name": "_candidateId",
          "type": "uint256"
        }
      ],
      "name": "getCandidateDetails",
      "outputs": [
        {
          "internalType": "address",
          "name": "",
          "type": "address"
        },
        {
          "internalType": "uint256",
          "name": "",
          "type": "uint256"
        }
      ],
      "stateMutability": "view",
      "type": "function",
      "constant": true
    }
  ],
  "bytecode": "0x60806040526000600455600060055534801561001a57600080fd5b50336000806101000a81548173ffffffffffffffffffffffffffffffffffffffff021916908373ffffffffffffffffffffffffffffffffffffffff16021790555060008060146101000a81548160ff021916908360028111156100805761007f61008a565b5b02179055506100b9565b7f4e487b7100000000000000000000000000000000000000000000000000000000600052602160045260246000fd5b6111a5806100c86000396000f3fe608060405234801561001057600080fd5b50600436106100a95760003560e01c806359f784681161007157806359f784681461016757806362d73eb8146101715780638da5cb5b1461017b57806398c0793814610199578063b9f05f2f146101b7578063f2aa5c43146101d3576100a9565b80630121b93f146100ae5780632280043d146100ca57806327f9fd50146100e85780632d35a8a2146101195780634427673314610137575b600080fd5b6100c860048036038101906100c39190610b5a565b6101ef565b005b6100d2610435565b6040516100df9190610bfe565b60405180910390f35b61010260048036038101906100fd9190610b5a565b610448565b604051610110929190610c69565b60405180910390f35b6101216104a2565b60405161012e9190610c92565b60405180910390f35b610151600480360381019061014c9190610cd9565b6104a8565b60405161015e9190610c92565b60405180910390f35b61016f61056e565b005b610179610633565b005b6101836106f8565b6040516101909190610d06565b60405180910390f35b6101a161071c565b6040516101ae9190610c92565b60405180910390f35b6101d160048036038101906101cc9190610d21565b610722565b005b6101ed60048036038101906101e89190610d21565b61095c565b005b6001600281111561020357610202610b87565b5b600060149054906101000a900460ff16600281111561022557610224610b87565b5b14610265576040517f08c379a000000000000000000000000000000000000000000000000000000000815260040161025c90610dbe565b60405180910390fd5b600360003373ffffffffffffffffffffffffffffffffffffffff1673ffffffffffffffffffffffffffffffffffffffff16815260200190815260200160002060010160009054906101000a900460ff166102f4576040517f08c379a00000000000000000000000000000000000000000000000000000000081526004016102eb90610e2a565b60405180910390fd5b600260003373ffffffffffffffffffffffffffffffffffffffff1673ffffffffffffffffffffffffffffffffffffffff16815260200190815260200160002060009054906101000a900460ff1615610381576040517f08c379a000000000000000000000000000000000000000000000000000000000815260040161037890610e96565b60405180910390fd5b6001600082815260200190815260200160002060020160008154809291906103a890610ee5565b91905055506001600260003373ffffffffffffffffffffffffffffffffffffffff1673ffffffffffffffffffffffffffffffffffffffff16815260200190815260200160002060006101000a81548160ff021916908315150217905550807f7f511e347bf51eed3be100b3194247d5207f05f3b33de7d31e3e8ee73199a04960405160405180910390a250565b600060149054906101000a900460ff1681565b6000806001600084815260200190815260200160002060010160009054906101000a900473ffffffffffffffffffffffffffffffffffffffff16600160008581526020019081526020016000206002015491509150915091565b60045481565b60008173ffffffffffffffffffffffffffffffffffffffff1660008054906101000a900473ffffffffffffffffffffffffffffffffffffffff1673ffffffffffffffffffffffffffffffffffffffff16036105065760019050610569565b600360008373ffffffffffffffffffffffffffffffffffffffff1673ffffffffffffffffffffffffffffffffffffffff16815260200190815260200160002060010160009054906101000a900460ff16156105645760029050610569565b600390505b919050565b60008054906101000a900473ffffffffffffffffffffffffffffffffffffffff1673ffffffffffffffffffffffffffffffffffffffff163373ffffffffffffffffffffffffffffffffffffffff16146105c657600080fd5b600160028111156105da576105d9610b87565b5b600060149054906101000a900460ff1660028111156105fc576105fb610b87565b5b1461060657600080fd5b6002600060146101000a81548160ff0219169083600281111561062c5761062b610b87565b5b0217905550565b60008054906101000a900473ffffffffffffffffffffffffffffffffffffffff1673ffffffffffffffffffffffffffffffffffffffff163373ffffffffffffffffffffffffffffffffffffffff161461068b57600080fd5b6000600281111561069f5761069e610b87565b5b600060149054906101000a900460ff1660028111156106c1576106c0610b87565b5b146106cb57600080fd5b6001600060146101000a81548160ff021916908360028111156106f1576106f0610b87565b5b0217905550565b60008054906101000a900473ffffffffffffffffffffffffffffffffffffffff1681565b60055481565b3373ffffffffffffffffffffffffffffffffffffffff1660008054906101000a900473ffffffffffffffffffffffffffffffffffffffff1673ffffffffffffffffffffffffffffffffffffffff16146107b0576040517f08c379a00000000000000000000000000000000000000000000000000000000081526004016107a790610f79565b60405180910390fd5b600360008373ffffffffffffffffffffffffffffffffffffffff1673ffffffffffffffffffffffffffffffffffffffff16815260200190815260200160002060010160009054906101000a900460ff1615610840576040517f08c379a000000000000000000000000000000000000000000000000000000000815260040161083790610fe5565b60405180910390fd5b6000600281111561085457610853610b87565b5b600060149054906101000a900460ff16600281111561087657610875610b87565b5b146108b6576040517f08c379a00000000000000000000000000000000000000000000000000000000081526004016108ad90611077565b60405180910390fd5b6001600360008473ffffffffffffffffffffffffffffffffffffffff1673ffffffffffffffffffffffffffffffffffffffff16815260200190815260200160002060010160006101000a81548160ff02191690831515021790555080600360008473ffffffffffffffffffffffffffffffffffffffff1673ffffffffffffffffffffffffffffffffffffffff168152602001908152602001600020600001819055505050565b3373ffffffffffffffffffffffffffffffffffffffff1660008054906101000a900473ffffffffffffffffffffffffffffffffffffffff1673ffffffffffffffffffffffffffffffffffffffff16146109ea576040517f08c379a00000000000000000000000000000000000000000000000000000000081526004016109e1906110e3565b60405180910390fd5b600060028111156109fe576109fd610b87565b5b600060149054906101000a900460ff166002811115610a2057610a1f610b87565b5b14610a60576040517f08c379a0000000000000000000000000000000000000000000000000000000008152600401610a579061114f565b60405180910390fd5b60405180606001604052808281526020018373ffffffffffffffffffffffffffffffffffffffff1681526020016000815250600160008381526020019081526020016000206000820151816000015560208201518160010160006101000a81548173ffffffffffffffffffffffffffffffffffffffff021916908373ffffffffffffffffffffffffffffffffffffffff1602179055506040820151816002015590505060046000815480929190610b1690610ee5565b91905055505050565b600080fd5b6000819050919050565b610b3781610b24565b8114610b4257600080fd5b50565b600081359050610b5481610b2e565b92915050565b600060208284031215610b7057610b6f610b1f565b5b6000610b7e84828501610b45565b91505092915050565b7f4e487b7100000000000000000000000000000000000000000000000000000000600052602160045260246000fd5b60038110610bc757610bc6610b87565b5b50565b6000819050610bd882610bb6565b919050565b6000610be882610bca565b9050919050565b610bf881610bdd565b82525050565b6000602082019050610c136000830184610bef565b92915050565b600073ffffffffffffffffffffffffffffffffffffffff82169050919050565b6000610c4482610c19565b9050919050565b610c5481610c39565b82525050565b610c6381610b24565b82525050565b6000604082019050610c7e6000830185610c4b565b610c8b6020830184610c5a565b9392505050565b6000602082019050610ca76000830184610c5a565b92915050565b610cb681610c39565b8114610cc157600080fd5b50565b600081359050610cd381610cad565b92915050565b600060208284031215610cef57610cee610b1f565b5b6000610cfd84828501610cc4565b91505092915050565b6000602082019050610d1b6000830184610c4b565b92915050565b60008060408385031215610d3857610d37610b1f565b5b6000610d4685828601610cc4565b9250506020610d5785828601610b45565b9150509250929050565b600082825260208201905092915050565b7f456c656374696f6e206973206e6f7420696e2070726f67726573730000000000600082015250565b6000610da8601b83610d61565b9150610db382610d72565b602082019050919050565b60006020820190508181036000830152610dd781610d9b565b9050919050565b7f4e6f6e20617574686f726973656420757365722063616e6e6f7420766f746500600082015250565b6000610e14601f83610d61565b9150610e1f82610dde565b602082019050919050565b60006020820190508181036000830152610e4381610e07565b9050919050565b7f596f75206861766520616c726561647920766f74656400000000000000000000600082015250565b6000610e80601683610d61565b9150610e8b82610e4a565b602082019050919050565b60006020820190508181036000830152610eaf81610e73565b9050919050565b7f4e487b7100000000000000000000000000000000000000000000000000000000600052601160045260246000fd5b6000610ef082610b24565b91507fffffffffffffffffffffffffffffffffffffffffffffffffffffffffffffffff8203610f2257610f21610eb6565b5b600182019050919050565b7f4f6e6c79206f776e65722063616e2061646420766f7465720000000000000000600082015250565b6000610f63601883610d61565b9150610f6e82610f2d565b602082019050919050565b60006020820190508181036000830152610f9281610f56565b9050919050565b7f566f74657220616c726561647920616464656400000000000000000000000000600082015250565b6000610fcf601383610d61565b9150610fda82610f99565b602082019050919050565b60006020820190508181036000830152610ffe81610fc2565b9050919050565b7f566f7465722063616e277420626520616464656420616674657220656c65637460008201527f696f6e2073746172746564000000000000000000000000000000000000000000602082015250565b6000611061602b83610d61565b915061106c82611005565b604082019050919050565b6000602082019050818103600083015261109081611054565b9050919050565b7f4f6e6c79206f776e65722063616e206164642063616e64696461746573000000600082015250565b60006110cd601d83610d61565b91506110d882611097565b602082019050919050565b600060208201905081810360008301526110fc816110c0565b9050919050565b7f456c656374696f6e2068617320616c7265616479207374617274656400000000600082015250565b6000611139601c83610d61565b915061114482611103565b602082019050919050565b600060208201905081810360008301526111688161112c565b905091905056fea264697066735822122001d016e470dbcc67d593235379d3ef63f4952f06eea4774f065de6de56acb94364736f6c634300080e0033",
  "immutableReferences": {},
  "source": "// SPDX-License-Identifier: MIT\npragma solidity >=0.4.0 <0.9.0;\n\ncontract Election {\n    enum State {\n        NotStarted,\n        InProgress,\n        Ended\n    }\n\n    struct Candidate {\n        uint256 id;\n        address candidateAddress;\n        uint256 voteCount;\n    }\n\n    address public owner;\n    State public electionState;\n\n    struct Voter {\n        uint256 id;\n        bool isVoter;\n    }\n\n    mapping(uint256 => Candidate) candidates;\n    mapping(address => bool) voted;\n\n    mapping(address => Voter) voters;\n\n    uint256 public candidatesCount = 0;\n\n    uint256 public votersCount = 0;\n\n    constructor() {\n        owner = msg.sender;\n        electionState = State.NotStarted;\n    }\n\n    event Voted(uint256 indexed _candidateId);\n\n    function startElection() public {\n        require(msg.sender == owner);\n        require(electionState == State.NotStarted);\n        electionState = State.InProgress;\n    }\n\n    function endElection() public {\n        require(msg.sender == owner);\n        require(electionState == State.InProgress);\n        electionState = State.Ended;\n    }\n\n    function addCandidate(address _address, uint _candidateId) public {\n        require(owner == msg.sender, \"Only owner can add candidates\");\n        require(\n            electionState == State.NotStarted,\n            \"Election has already started\"\n        );\n\n        candidates[_candidateId] = Candidate(_candidateId, _address, 0);\n        candidatesCount++;\n    }\n\n    function addVoter(address _voter, uint _voterId) public {\n        require(owner == msg.sender, \"Only owner can add voter\");\n        require(!voters[_voter].isVoter, \"Voter already added\");\n        require(\n            electionState == State.NotStarted,\n            \"Voter can't be added after election started\"\n        );\n\n        voters[_voter].isVoter = true;\n        voters[_voter].id = _voterId;\n    }\n\n    function getRole(address _current) public view returns (uint256) {\n        if (owner == _current) {\n            return 1;\n        } else if (voters[_current].isVoter) {\n            return 2;\n        } else {\n            return 3;\n        }\n    }\n\n    function vote(uint256 _candidateId) public {\n        require(\n            electionState == State.InProgress,\n            \"Election is not in progress\"\n        );\n        require(voters[msg.sender].isVoter, \"Non authorised user cannot vote\");\n        require(!voted[msg.sender], \"You have already voted\");\n\n        candidates[_candidateId].voteCount++;\n        voted[msg.sender] = true;\n\n        emit Voted(_candidateId);\n    }\n\n    function getCandidateDetails(\n        uint256 _candidateId\n    ) public view returns (address, uint256) {\n        return (\n            candidates[_candidateId].candidateAddress,\n            candidates[_candidateId].voteCount\n        );\n    }\n}\n",
  "sourcePath": "/home/amine/All/blockchain/Arbi/dapps_blockchain/contracts/Voting.sol",
  "compiler": {
    "name": "solc",
    "version": "0.8.14+commit.80d49f37.Emscripten.clang"
  },
  "schemaVersion": "3.4.16",
  "updatedAt": "2025-01-13T10:37:35.856Z",
  "networkType": "ethereum",
  "devdoc": {
    "kind": "dev",
    "methods": {},
    "version": 1
  },
  "userdoc": {
    "kind": "user",
    "methods": {},
    "version": 1
  }
}